:100000000C942A000C9447000C9447000C94470071
:100010000C9447000C9447000C9447000C94470044
:100020000C9447000C9447000C9447000C94470034
:100030000C9447000C9447000C9447000C94470024
:100040000C9447000C9447000C9447000C94470014
:100050000C94470011241FBECFE5D8E0DEBFCDBF12
:1000600010E0A0E6B0E0E2E4F8E002C005900D92F6
:10007000AA3CB107D9F720E0AAECB0E001C01D927C
:10008000A23DB207E1F70E9495030C941F040C9463
:10009000000020EF3FEF4FEE5FED6FEB9FE727BBD8
:1000A00038BB88B38F7088BB000086B38F70809395
:1000B000CF008F30B1F77FEF89EFE0E071508040E3
:1000C000E040E1F700C0000086B38F708093CF005E
:1000D0008F3089F37FEF83EFE1E071508040E040A3
:1000E000E1F700C0000086B38F708093CF008F309F
:1000F00011F348BB000086B38F708093CF008F3020
:1001000019F01092CE0020C058BB000086B38F704B
:100110008093CF008F3011F081E014C068BB0000E5
:1001200086B38F708093CF008F3011F082E00AC0C9
:1001300098BB000086B38F708093CF008F3009F496
:10014000AECF83E08093CE008091CF00E091CE00CF
:100150008E3041F474E0E79FF0011124E05AFF4F24
:1001600080811BC08D3041F484E0E89FF0011124B0
:10017000E05AFF4F818111C08B3041F474E0E79F5A
:10018000F0011124E05AFF4F828107C084E0E89F0C
:10019000F0011124E05AFF4F838190E008950E94FE
:1001A0004900813319F481E090E004C0823339F4CE
:1001B00082E090E09093D1008093D00029C08333F7
:1001C00019F483E090E0F6CF843319F484E090E0F2
:1001D000F1CF853319F485E090E0ECCF863319F444
:1001E00086E090E0E7CF873319F487E090E0E2CF34
:1001F000883319F488E090E0DDCF893319F489E081
:1002000090E0D8CF803321F41092D1001092D0002A
:100210008091D0009091D100089598B39F70282FBD
:10022000207F922B98BBC298C39A35E03A95F1F79C
:100230000000C398EFE8F1E03197F1F700C000004B
:1002400028B32F70F0E18F9FC0011124822B88BB4F
:10025000C39A35E03A95F1F70000C3988FE39FE128
:100260000197F1F700C00000089598B39F70282F00
:10027000207F922B98BBC29AC39A35E03A95F1F74A
:100280000000C398EFE8F1E03197F1F700C00000FB
:1002900028B32F70F0E18F9FC0011124822B88BBFF
:1002A000C39A35E03A95F1F70000C3988FE39FE1D8
:1002B0000197F1F700C0000008958CEF87BB2FEF86
:1002C00083EC99E0215080409040E1F700C00000AD
:1002D00083E30E940D0182E30E940D0188E20E94E7
:1002E0000D018CE00E940D0181E00E940D0182E869
:1002F0000C940D01CF93DF9300D0CDB7DEB790E81B
:10030000998390EC9A83FE01E60FF11D9181890F8C
:100310000F900F90DF91CF910C940D010F931F93CD
:10032000CF938C01C0E0F801EC0FF11D8081882390
:1003300021F00E943501CF5FF6CFCF911F910F9131
:10034000089581E00C940D011F93CF93DF93CDB7F7
:10035000DEB72E970FB6F894DEBF0FBECDBF4AE0D2
:10036000BE016F5F7F4F0E94EA0310E0E1E0F0E022
:10037000EC0FFD1FE10FF11D8081882321F00E9409
:1003800035011F5FF3CF2E960FB6F894DEBF0FBE78
:10039000CDBFDF91CF911F9108958D9A1DBC1CBCDC
:1003A00027E833E137BD26BD92E89FBD9BE19EBDA6
:1003B000813419F480ED90E009C0823419F487E7A4
:1003C00091E004C0833421F48DE192E09BBD8ABDAD
:1003D000089586B38095817090E008958FEF8ABB71
:1003E0008EE190E020E12BBBEFE3FFE13197F1F7E5
:1003F00000C000001BBAFFE73DEE40E0F150304086
:100400004040E1F700C00000019769F75FEF89E61F
:1004100098E1515080409040E1F700C0000084E135
:1004200090E020E12BBBEFE9FFE03197F1F700C04E
:1004300000001BBAFFEF30EE40E0F150304040408A
:10044000E1F700C00000019769F708958FEF8ABBBC
:1004500081E490E0F9E0E8E07CE064E056E042E02E
:1004600033E021E0FBBBAFE3BCE91197F1F700C03B
:100470000000EBBBAFE3BCE91197F1F700C000004F
:100480007BBBAFE3BCE91197F1F700C000006BBB89
:10049000AFE3BCE91197F1F700C000005BBBAFE32D
:1004A000BCE91197F1F700C000004BBBAFE3BCE91A
:1004B0001197F1F700C000003BBBAFE3BCE9119717
:1004C000F1F700C000002BBBAFE3BCE91197F1F7D7
:1004D00000C00000019731F608958FEF8ABB81E4D8
:1004E00090E0F1E0E3E072E066E054E04CE038E0F8
:1004F00029E0FBBBAFE3BCE91197F1F700C00000B6
:10050000EBBBAFE3BCE91197F1F700C000007BBB88
:10051000AFE3BCE91197F1F700C000006BBBAFE39C
:10052000BCE91197F1F700C000005BBBAFE3BCE989
:100530001197F1F700C000004BBBAFE3BCE9119786
:10054000F1F700C000003BBBAFE3BCE91197F1F746
:1005500000C000002BBBAFE3BCE91197F1F700C06E
:100560000000019731F608950F931F93CF93DF9307
:10057000681779076CF400E010E0EC01C61BD70B9C
:100580000C171D07ACF40E946D020F5F1F4FF8CFD0
:10059000861797076CF400E010E0EB01C81BD90B3D
:1005A0000C171D072CF40E9426020F5F1F4FF8CF77
:1005B00080E090E0DF91CF911F910F910895CF934C
:1005C0000E94A10160E080E00E947A0180E790E053
:1005D0000E948E010E944900C82F2FEF89E698E102
:1005E000215080409040E1F700C000008C2F0E9415
:1005F000CD012FEF89E698E1215080409040E1F74E
:1006000000C000000E94A10160E081E00E947A0128
:1006100082E890E00E948E018FEB8C0F823010F008
:10062000C334C9F50E94CF009093CD008093CC00D5
:1006300060E080E00E947A010E94A1018091CC00DC
:100640009091CD000E94A4018091CC009091CD00AA
:10065000009709F16091CA007091CB008617970747
:1006600029F08A30910514F40E94B40260E080E021
:100670000E947A010E94A10182E990E00E948E010D
:100680008091CC009091CD00009761F29093CB00C7
:100690008093CA00C7CFCF910895CF93DF93EC0129
:1006A0000E94B4021BBA0E94EE0160E081E00E9449
:1006B0007A010E94A10181EA90E00E948E012FEF51
:1006C00089E698E1215080409040E1F700C00000A9
:1006D000D093CB00C093CA00DF91CF910895CF9300
:1006E000DF9317BA8FEF88BB8ABBB1991BC02FEF7E
:1006F00085EA9EE0215080409040E1F700C0000074
:100700001BBAC1E0D0E01BBA6091CA007091CB0067
:100710006C177D0719F0CE010E944D032196C4305D
:10072000D10589F7DF91CF9108958FEF81BB9CEFC1
:1007300097BB91E198BB8ABB0E945D0160E080E0BD
:100740000E947A0181EB90E00E948E012FEF87EAF0
:1007500091E6215080409040E1F700C000001092E7
:10076000CD001092CC001092CB001092CA008FE303
:100770009CE90197F1F700C000000E94E901813077
:10078000910599F40E945D0160E080E00E947A0189
:100790000E94A1018DEB90E00E948E010E946F03E8
:1007A0000E94E901892B71F7E8CF892B31F70E946C
:1007B0005D0160E080E00E947A010E94A10182E870
:1007C00090E00E948E010E94DF020E94E9010197E1
:1007D00071F7D3CFBB274A3031F4992322F4BDE21D
:1007E000909581959F4F0C94F603BB27FB015527ED
:1007F000AA27880F991FAA1FA41710F0A41B83957E
:100800005051B9F7A05DAA3308F0A95DA1930097F4
:1008100079F7B111B1931192CB010C940F04DC0163
:10082000FC01672F71917723E1F7329704C07C9127
:100830006D9370836291AE17BF07C8F30895F89463
:02084000FFCFE8
:1008420037383941343536423132334320303D2B4B
:1008520053656C6563742074686520646F736167A7
:10086200650046696C6C696E67205068696C6C65DE
:1008720072004D65646963696E652074616B656EB3
:10088200004D65646963696E652064726F706564AA
:1008920000544845205048494C4C45520046696C2A
:0A08A2006C696E6720426F7400005D
:00000001FF
